:100000000C942E000C944B000C944B000C944B0061
:100010000C944B000C944B000C944B000C944B0034
:100020000C944B000C944B000C944B000C944B0024
:100030000C944B000C944B000C944B000C944B0014
:100040000C944B000C944B000C944B000C944B0004
:100050000C944B000C944B000C944B0011241FBECD
:10006000CFEFD4E0DEBFCDBF11E0A0E0B1E0EAEE1B
:10007000F0E002C005900D92A030B107D9F721E061
:10008000A0E0B1E001C01D92A030B207E1F70E94EC
:100090006A000C9473000C940000E1E6F0E080E844
:1000A0008083108287EB8093E50087E08093E600F1
:1000B0008FE08093E70080EC8093E400089584E073
:1000C00080938100E1E6F0E0808181608083089583
:1000D0002F9A08950E944D000E945F000E946800C0
:0A00E00080E090E00895F894FFCF4F
:00000001FF
