:100000000C945B000C9478000C9478000C947800AD
:100010000C9478000C9478000C9478000C94780080
:100020000C9478000C9478000C9478000C94780070
:100030000C9478000C9478000C9478000C94780060
:100040000C9478000C9478000C9478000C94780050
:100050000C9478000C9478000C9478000800000050
:10006000BE922449123EABAAAA2ABECDCCCC4C3EAD
:1000700000000080BEABAAAAAA3E00000000BF009C
:100080000000803F0000000000084178D3BB438798
:10009000D1133D190E3CC3BD4282AD2B3E68EC82AC
:1000A00076BED98FE1A93E4C80EFFFBE01C4FF7F31
:1000B0003F000000000011241FBECFEFD4E0DEBFE0
:1000C000CDBF11E0A0E0B1E0E6E1F3E102C00590B0
:1000D0000D92AA32B107D9F721E0AAE2B1E001C03E
:1000E0001D92A033B207E1F70E9403040C94890922
:1000F0000C940000E1E6F0E080E88083108287EB5A
:100100008093E50087E08093E6008FE08093E7002E
:1001100080EC8093E4000895CF93DF93CDB7DEB7F2
:10012000C051D2400FB6F894DEBF0FBECDBF6630CF
:10013000710508F09BC290ED980F9A30B8F48033A7
:10014000C1F08133C9F08233D1F08333D9F08433E5
:10015000E1F08533E9F08633F1F08733F9F0883345
:1001600001F1893309F589E090E020C08AE090E050
:100170001DC080E090E01AC081E090E017C082E0EE
:1001800090E014C083E090E011C084E090E00EC0E5
:1001900085E090E00BC086E090E008C087E090E04A
:1001A00005C088E090E002C080E090E06115710534
:1001B00009F062C026E1E0E0F1E0DE01A550BE4FAB
:1001C00001900D922A95E1F7880F991FEBEFF1E06E
:1001D000EC0FFD1FE80FF91F20812F702093EC001A
:1001E00026E1E0E0F1E0DE01AB51BE4F01900D925F
:1001F0002A95E1F7E5EEF1E0EC0FFD1FE80FF91F9E
:1002000020813181207F3327359527953595279596
:1002100035952795359527952093F10026E1E0E067
:10022000F1E0DE01A153BE4F01900D922A95E1F756
:10023000EFECF1E0EC0FFD1FE80FF91F2081318199
:1002400022273F703093F60026E1E0E0F1E0DE0186
:10025000A754BE4F01900D922A95E1F7E9EBF1E02A
:10026000EC0FFD1FE80FF91F818185958595859518
:1002700085958093FB00FAC16130710509F065C076
:1002800026E1E0E0F1E0DE01AD55BE4F01900D92B8
:100290002A95E1F7880F991FE3EAF1E0EC0FFD1FC3
:1002A000E80FF91F2081318122953295307F322766
:1002B000207F32272093EC0026E1E0E0F1E0DE0130
:1002C000A357BE4F01900D922A95E1F7EDE8F1E0BA
:1002D000EC0FFD1FE80FF91F2081207F2093F10014
:1002E00026E1E0E0F1E0DE01A958BE4F01900D9259
:1002F0002A95E1F7E7E7F1E0EC0FFD1FE80FF91FA2
:100300002081318122273F70359527953595279596
:1003100035952795359527952093F60026E1E0E061
:10032000F1E0DE01AF59BE4F01900D922A95E1F741
:10033000E1E6F1E0EC0FFD1FE80FF91F80819181EC
:100340008827907F9093FB0091C16230710509F07E
:1003500062C026E1E0E0F1E0DE01A55BBE4F019066
:100360000D922A95E1F7880F991FEBE4F1E0EC0F6D
:10037000FD1FE80FF91F20812F702093ED0026E16B
:10038000E0E0F1E0DE01AB5CBE4F01900D922A95FA
:10039000E1F7E5E3F1E0EC0FFD1FE80FF91F208125
:1003A0003181207F332735952795359527953595CC
:1003B0002795359527952093F20026E1E0E0F1E0BE
:1003C000DE01A15EBE4F01900D922A95E1F7EFE1AB
:1003D000F1E0EC0FFD1FE80FF91F2081318122278A
:1003E0003F703093F70026E1E0E0F1E0DE01A75F27
:1003F000BE4F01900D922A95E1F7E9E0F1E0EC0F94
:10040000FD1FE80FF91F8181859585958595859557
:100410008093FC002BC16330710509F065C026E1B3
:10042000E0E0F1E0DE01AD50BF4F01900D922A9562
:10043000E1F7880F991FE3EFF0E0EC0FFD1FE80FE5
:10044000F91F2081318122953295307F3227207F1C
:1004500032272093ED0026E1E0E0F1E0DE01A35237
:10046000BF4F01900D922A95E1F7EDEDF0E0EC0F12
:10047000FD1FE80FF91F2081207F2093F20026E165
:10048000E0E0F1E0DE01A953BF4F01900D922A9503
:10049000E1F7E7ECF0E0EC0FFD1FE80FF91F20811A
:1004A000318122273F7035952795359527953595CC
:1004B0002795359527952093F70026E1E0E0F1E0B8
:1004C000DE01AF54BF4F01900D922A95E1F7E1EBA9
:1004D000F0E0EC0FFD1FE80FF91F80819181882764
:1004E000907F9093FC00C2C06430710509F062C037
:1004F00026E1E0E0F1E0DE01A556BF4F01900D924C
:100500002A95E1F7880F991FEBE9F0E0EC0FFD1F4A
:10051000E80FF91F20812F702093EE0026E1E0E024
:10052000F1E0DE01AB57BF4F01900D922A95E1F744
:10053000E5E8F0E0EC0FFD1FE80FF91F20813181A5
:10054000207F332735952795359527953595279520
:10055000359527952093F30026E1E0E0F1E0DE01F8
:10056000A159BF4F01900D922A95E1F7EFE6F0E017
:10057000EC0FFD1FE80FF91F2081318122273F700A
:100580003093F80026E1E0E0F1E0DE01A75ABF4F2A
:1005900001900D922A95E1F7E9E5F0E0EC0FFD1FDF
:1005A000E80FF91F818185958595859585958093BF
:1005B000FD005CC06530710509F058C026E1E0E03F
:1005C000F1E0DE01AD5BBF4F01900D922A95E1F79E
:1005D000880F991FE3E4F0E0EC0FFD1FE80FF91F0F
:1005E0002081318122953295307F3227207F32273A
:1005F0002093EE0026E1E0E0F1E0DE019D9601901F
:100600000D922A95E1F721E030E02C0F3D1F820F7B
:10061000931FFC0124A5207F2093F30026E1E0E056
:10062000F1E0DE01579601900D922A95E1F7FC0169
:100630002689378922273F70359527953595279547
:1006400035952795359527952093F80026E1E0E02C
:10065000F1E0DE01119601900D922A95E1F7FC017F
:10066000808191818827907F9093FD00C05FDD4F4E
:100670000FB6F894DEBF0FBECDBFDF91CF910895C6
:100680003F924F925F926F927F928F929F92AF9222
:10069000BF92CF92DF92EF92FF920F931F93CF936F
:1006A000DF9300D01F92CDB7DEB74B015C012DB7B1
:1006B0003EB73B832A83611571058105910549F198
:1006C000772324F46627772768197909072E000C09
:1006D000880B990B0E94B3040E9497050E94EE04B8
:1006E00020E030E040E85FE30E940F040E947B04BA
:1006F0008B01ADB7BEB7A61BB70B0FB6F894BEBF44
:100700000FBEADBFEDB7FEB731963F0177233CF486
:1007100027C09E012F5F3F4F390101E010E06301C8
:10072000E12CF12C582C492DEAE0F0E0852D942F96
:10073000101611064CF49801BF010E948306862F03
:10074000972F21503109C1F7BF010E948306D601BE
:100750008D936D01BFEFEB1AFB0A0E151F0534F7E1
:10076000C12CD12C0C151D0594F17301E80CF91C5A
:100770000F2EF6E16F2EF1E07F2EF02D0F2EF1E21D
:100780004F2EF1E05F2EF02DF70130801F923F9247
:100790007F926F920E94AB06BF92AF929F928F9210
:1007A0005F924F920E94AB06B401832D0E948C0091
:1007B000FFEFCF1ADF0A2DB73EB7265F3F4F0FB6C8
:1007C000F8943EBF0FBE2DBF0C151D05ECF68A81B7
:1007D0009B810FB6F8949EBF0FBE8DBF0F900F90F8
:1007E0000F90DF91CF911F910F91FF90EF90DF90CD
:1007F000CF90BF90AF909F908F907F906F905F90C1
:100800004F903F9008950E947A006BE770E080E07F
:1008100090E00E94400380E090E008955058BB278C
:10082000AA270E9426040C9445050E94370538F03B
:100830000E943E0520F039F49F3F19F426F40C94F1
:1008400034050EF4E095E7FB0C940505E92F0E94B2
:10085000560558F3BA17620773078407950720F007
:1008600079F4A6F50C9490050EF4E0950B2EBA2FB2
:10087000A02D0B01B90190010C01CA01A0011124A6
:10088000FF27591B99F0593F50F4503E68F11A1652
:10089000F040A22F232F342F4427585FF3CF4695E3
:1008A00037952795A795F0405395C9F77EF41F1605
:1008B000BA0B620B730B840BBAF09150A1F0FF0FCF
:1008C000BB1F661F771F881FC2F70EC0BA0F621FBB
:1008D000731F841F48F4879577956795B795F795AB
:1008E0009E3F08F0B0CF9395880F08F09927EE0F40
:1008F0009795879508950E9482046894B1110C948D
:10090000910508950E945E0588F09F5798F0B92FD1
:100910009927B751B0F0E1F0660F771F881F991F34
:100920001AF0BA95C9F714C0B13091F00E94900541
:10093000B1E008950C949005672F782F8827B85F51
:1009400039F0B93FCCF3869577956795B395D9F78C
:100950003EF490958095709561957F4F8F4F9F4F96
:100960000895E89409C097FB3EF4909580957095A2
:1009700061957F4F8F4F9F4F9923A9F0F92F96E9EB
:10098000BB279395F695879577956795B795F11160
:10099000F8CFFAF4BB0F11F460FF1BC06F5F7F4FFD
:1009A0008F4F9F4F16C0882311F096E911C077230F
:1009B00021F09EE8872F762F05C0662371F096E818
:1009C000862F70E060E02AF09A95660F771F881FE7
:1009D000DAF7880F9695879597F908950E9478051C
:1009E00090F09F3748F4911116F00C94910560E057
:1009F00070E080E89FEB089526F41B16611D711DC1
:100A0000811D0C940B050C94260597F99F6780E8CF
:100A100070E060E00895882371F4772321F0985006
:100A2000872B762F07C0662311F499270DC09051AC
:100A3000862B70E060E02AF09A95660F771F881F7A
:100A4000DAF7880F9695879597F908959F3F31F0CB
:100A5000915020F4879577956795B795880F911DEC
:100A60009695879597F908959FEF80EC0895002457
:100A70000A941616170618060906089500240A9403
:100A800012161306140605060895092E0394000C89
:100A900011F4882352F0BB0F40F4BF2B11F460FF18
:100AA00004C06F5F7F4F8F4F9F4F089557FD905841
:100AB000440F551F59F05F3F71F04795880F97FB22
:100AC000991F61F09F3F79F08795089512161306DC
:100AD0001406551FF2CF4695F1DF08C0161617060B
:100AE0001806991FF1CF8695710561050894089540
:100AF0000E945E05A0F0BEE7B91788F4BB279F38B7
:100B000060F41616B11D672F782F8827985FF7CFEE
:100B1000869577956795B11D93959639C8F3089595
:100B2000E894BB2766277727CB0197F908950E94A1
:100B3000A70529ED3BE54EED5EE30C94EF0516F0BD
:100B40000C9426050C94340568940C9405050E94B9
:100B50005E05A8F39923C1F3AEF3DF93CF931F9300
:100B60000F93FF92C92FDD2788232AF02197660F64
:100B7000771F881FDAF720E030E040E85FEB9FE363
:100B8000883920F0803E38F021968F770E940F043C
:100B9000ECE5F0E004C00E940F04E9E8F0E00E94F8
:100BA0005C068B01BE01EC01FB2E6F577109759538
:100BB000771F880B990B0E94B30428E132E741E3C9
:100BC0005FE30E940206AF2D9801AE01FF900F91E6
:100BD0001F91CF91DF910E9426040C9445050E943D
:100BE00002060C9445050E94370538F00E943E0528
:100BF00020F0952311F00C9405050C943405112474
:100C00000C9491050E94560570F3959FC1F3950FC2
:100C100050E0551F629FF001729FBB27F00DB11D80
:100C2000639FAA27F00DB11DAA1F649F6627B00D10
:100C3000A11D661F829F2227B00DA11D621F739FF9
:100C4000B00DA11D621F839FA00D611D221F749F07
:100C50003327A00D611D231F849F600D211D822F4E
:100C6000762F6A2F11249F5750409AF0F1F0882375
:100C70004AF0EE0FFF1FBB1F661F771F881F9150A2
:100C80005040A9F79E3F510580F00C9405050C9447
:100C900091055F3FE4F3983ED4F386957795679589
:100CA000B795F795E7959F5FC1F7FE2B880F911DCC
:100CB0009695879597F90895DF93CF931F930F9398
:100CC000FF92EF92DF927B018C01689406C0DA2ECE
:100CD000EF010E940206FE01E894A591259135914D
:100CE00045915591A6F3EF010E942604FE0197015C
:100CF000A801DA9469F7DF90EF90FF900F911F91B0
:100D0000CF91DF91089597FB072E16F4009407D03A
:100D100077FD09D00E94970607FC05D03EF4909518
:100D200081959F4F0895709561957F4F0895AA1BF7
:100D3000BB1B51E107C0AA1FBB1FA617B70710F0C6
:100D4000A61BB70B881F991F5A95A9F780959095F8
:100D5000BC01CD010895A0E0B0E0E1EBF6E00C9419
:100D60006209AE014B5F5F4FFA0161917191AF0172
:100D700080912C0190912D010E94C106E2E00C941B
:100D80007E09ABE0B0E0E7ECF6E00C9452096C01B0
:100D90007B018A01FC0117821682838181FFCCC10D
:100DA000CE0101963C01F6019381F70193FD8591F7
:100DB00093FF81917F01882309F4BAC1853239F408
:100DC00093FD859193FF81917F01853229F4B601CE
:100DD00090E00E94B808E7CF912C212C312CFFE144
:100DE000F315D8F08B3279F038F4803279F0833211
:100DF000A1F4232D20611DC08D3261F0803369F490
:100E0000232D216016C0832D8260382EE32DE460EF
:100E10003E2E2AC0F32DF8601DC037FC2DC020EDFA
:100E2000280F2A3040F08E32B9F436FC81C1232DD0
:100E30002064322E19C036FE06C08AE0989E200D2E
:100E40001124922E11C0EAE02E9E200D1124222E94
:100E5000F32DF0623F2E08C08C3621F4832D80687C
:100E6000382E02C0883641F4F70193FD859193FF37
:100E700081917F018111B3CF982F9F7D955493303D
:100E800028F40C5F1F4F9FE399830DC0833631F028
:100E9000833771F0833509F059C021C0F801808192
:100EA00089830E5F1F4F88248394912C530113C0B4
:100EB0002801F2E04F0E511CF801A080B18036FEEF
:100EC00003C0692D70E002C06FEF7FEFC5010E9483
:100ED000AD084C018201F32DFF773F2E16C028018B
:100EE00022E0420E511CF801A080B18036FE03C002
:100EF000692D70E002C06FEF7FEFC5010E94A2086C
:100F00004C01F32DF0683F2E820133FC1BC0822D73
:100F100090E088169906B0F4B60180E290E00E9455
:100F2000B8082A94F4CFF50137FC859137FE8191FA
:100F30005F01B60190E00E94B80821102A9421E0D8
:100F4000821A91088114910471F7E8C0843611F077
:100F5000893641F5F80137FE07C0608171818281D1
:100F600093810C5F1F4F08C060817181072E000CB8
:100F7000880B990B0E5F1F4FF32DFF763F2E97FFC7
:100F800009C090958095709561957F4F8F4F9F4FC9
:100F9000F0683F2E2AE030E0A3010E94F408882E7A
:100FA000861845C0853731F4232D2F7EB22E2AE0D6
:100FB00030E025C0932D997FB92E8F36C1F018F4FB
:100FC000883579F0B5C0803719F0883721F0B0C086
:100FD000E92FE061BE2EB4FE0DC0FB2DF460BF2EE4
:100FE00009C034FE0AC0292F2660B22E06C028E0B0
:100FF00030E005C020E130E002C020E132E0F8013D
:10100000B7FE07C060817181828193810C5F1F4FA1
:1010100006C06081718180E090E00E5F1F4FA301E8
:101020000E94F408882E8618FB2DFF773F2E36FE8F
:101030000DC0232D2E7FA22E891458F434FE0BC030
:1010400032FC09C0832D8E7EA82E05C0B82CA32C9F
:1010500003C0B82C01C0B92CA4FE0FC0FE01E80DDE
:10106000F11D8081803321F49A2D997EA92E09C02B
:10107000A2FE06C0B394B39404C08A2D867809F00A
:10108000B394A3FC11C0A0FE06C0B21488F4280CCF
:10109000922C9B180EC0B21460F4B60180E290E06E
:1010A0000E94B808B394F7CFB21418F42B1802C0FA
:1010B000982C212CA4FE10C0B60180E390E00E9481
:1010C000B808A2FE17C0A1FC03C088E790E002C0E8
:1010D00088E590E0B6010CC08A2D867859F0A1FE13
:1010E00002C08BE201C080E2A7FC8DE2B60190E075
:1010F0000E94B808891438F4B60180E390E00E9499
:10110000B8089A94F7CF8A94F301E80DF11D808115
:10111000B60190E00E94B8088110F5CF222009F4B2
:1011200042CEB60180E290E00E94B8082A94F6CF41
:10113000F6018681978102C08FEF9FEF2B96E2E147
:101140000C946E09FC010590615070400110D8F7B5
:10115000809590958E0F9F1F0895FC0161507040FF
:1011600001900110D8F7809590958E0F9F1F0895DC
:101170000F931F93CF93DF93FB01238121FD03C0C6
:101180008FEF9FEF2CC022FF16C04681578124812C
:1011900035814217530744F4A081B1819D012F5F2F
:1011A0003F4F318320838C93268137812F5F3F4FC0
:1011B0003783268314C08B01EC01FB010084F18589
:1011C000E02D0995892BE1F6D80116968D919C9119
:1011D0001797019617969C938E931697CE01DF91E1
:1011E000CF911F910F910895FA01AA27283051F14C
:1011F000203181F1E8946F936E7F6E5F7F4F8F4F48
:101200009F4FAF4FB1E03ED0B4E03CD0670F781FA6
:10121000891F9A1FA11D680F791F8A1F911DA11D8B
:101220006A0F711D811D911DA11D20D009F46894C4
:101230003F912AE0269F11243019305D3193DEF66C
:10124000CF010895462F4770405D4193B3E00FD022
:10125000C9F7F6CF462F4F70405D4A3318F0495D0D
:1012600031FD4052419302D0A9F7EACFB4E0A695F0
:101270009795879577956795BA95C9F70097610512
:10128000710508959B01AC010A2E06945795479568
:1012900037952795BA95C9F7620F731F841F951F5D
:1012A000A01D08952F923F924F925F926F927F926E
:1012B0008F929F92AF92BF92CF92DF92EF92FF9266
:1012C0000F931F93CF93DF93CDB7DEB7CA1BDB0B12
:1012D0000FB6F894DEBF0FBECDBF09942A883988B7
:1012E00048885F846E847D848C849B84AA84B984BE
:1012F000C884DF80EE80FD800C811B81AA81B981CA
:10130000CE0FD11D0FB6F894DEBF0FBECDBFED01DD
:061310000895F894FFCFE0
:1013160051158020111E111B500B411B411F11013D
:10132600511F510B00007072696E74202563200AEC
:0A133600007072696E7420256400D7
:00000001FF
