:100000000C942E000C944B000C944B000C944B0061
:100010000C944B000C944B000C944B000C944B0034
:100020000C944B000C944B000C944B000C944B0024
:100030000C944B000C944B000C944B000C944B0014
:100040000C944B000C944B000C944B000C944B0004
:100050000C944B000C944B000C944B0011241FBECD
:10006000CFEFD4E0DEBFCDBF11E0A0E0B1E0E0E132
:10007000F1E002C005900D92A230B107D9F721E05E
:10008000A2E0B1E001C01D92A830B207E1F70E94E2
:1000900082000C9486000C940000E1E6F0E080E819
:1000A0008083108287EB8093E50087E08093E600F1
:1000B0008FE08093E70080EC8093E400089523B103
:1000C000221F2227221F30E03093030120930201D8
:1000D00081E040910001509101014217530709F45A
:1000E00080E008952F9A279ACFEED0E011E000E04B
:1000F0000E945F008823E1F39881812F9111802F66
:100100008883F6CF0E944D000E947200F894FFCFC2
:020110000100EC
:00000001FF
