:100000000C942E000C9443000C9443000C94430079
:100010000C9443000C9443000C9443000C94430054
:100020000C9443000C9443000C9443000C94430044
:100030000C9443000C9443000C9443000C94430034
:100040000C9443000C9443000C9443000C94430024
:100050000C9443000C9443000C94430011241FBEE5
:10006000CFEFD4E0DEBFCDBF11E0A0E0B1E0EEEA1B
:10007000F9E002C005900D92A431B107D9F70E94B2
:100080003F030C94D5040C940000E1E6F0E080E816
:100090008083108287EB8093E50087E08093E60001
:1000A0008FE08093E70080EC8093E4000895CF9385
:1000B000DF93CDB7DEB7C05ED1400FB6F894DEBF98
:1000C0000FBECDBF6630710508F09AC20097D9F017
:1000D00081309105D9F082309105D9F083309105B6
:1000E000D9F084309105D9F085309105D9F086306A
:1000F0009105D9F087309105D9F088309105D9F074
:100100000997F1F41BC020E030E01AC021E030E094
:1001100017C022E030E014C023E030E011C024E03A
:1001200030E00EC025E030E00BC026E030E008C033
:1001300027E030E005C028E030E002C029E030E0F0
:100140006115710509F063C084E1E0E0F1E0DE01D2
:10015000A353BE4F01900D928A95E1F7C901880F14
:10016000991FEDECF1E0EC0FFD1FE80FF91F208166
:100170002F702093EC0024E1E0E0F1E0DE01A754D1
:10018000BE4F01900D922A95E1F7E9EBF1E0EC0FFB
:10019000FD1FE80FF91F20813181207F332735951E
:1001A000279535952795359527953595279520934E
:1001B000F10024E1E0E0F1E0DE01AB55BE4F01903B
:1001C0000D922A95E1F7E5EAF1E0EC0FFD1FE80F4B
:1001D000F91F2081318122273F703093F60024E1FE
:1001E000E0E0F1E0DE01AF56BE4F01900D922A959E
:1001F000E1F7E1E9F1E0EC0FFD1FE80FF91F818164
:1002000085958595859585958093FB00F9C161302D
:10021000710509F066C084E1E0E0F1E0DE01A35879
:10022000BE4F01900D928A95E1F7C901880F991F81
:10023000EDE7F1E0EC0FFD1FE80FF91F20813181A0
:1002400022953295307F3227207F32272093EC0091
:1002500024E1E0E0F1E0DE01A759BE4F01900D92EC
:100260002A95E1F7E9E6F1E0EC0FFD1FE80FF91F31
:100270002081207F2093F10024E1E0E0F1E0DE0125
:10028000AB5ABE4F01900D922A95E1F7E5E5F1E0FA
:10029000EC0FFD1FE80FF91F2081318122273F70ED
:1002A0003595279535952795359527953595279536
:1002B0002093F60024E1E0E0F1E0DE01AF5BBE4F09
:1002C00001900D922A95E1F7E1E4F1E0EC0FFD1FBA
:1002D000E80FF91F808191818827907F9093FB0020
:1002E0008FC16230710509F063C084E1E0E0F1E0A4
:1002F000DE01A35DBE4F01900D928A95E1F7C90121
:10030000880F991FEDE2F1E0EC0FFD1FE80FF91FD8
:1003100020812F702093ED0024E1E0E0F1E0DE0188
:10032000A75EBE4F01900D922A95E1F7E9E1F1E059
:10033000EC0FFD1FE80FF91F20813181207F33274B
:100340003595279535952795359527953595279595
:100350002093F20024E1E0E0F1E0DE01AB5FBE4F6C
:1003600001900D922A95E1F7E5E0F1E0EC0FFD1F19
:10037000E80FF91F2081318122273F703093F70069
:1003800024E1E0E0F1E0DE01AF50BF4F01900D92BB
:100390002A95E1F7E1EFF0E0EC0FFD1FE80FF91F00
:1003A000818185958595859585958093FC0028C1EB
:1003B0006330710509F066C084E1E0E0F1E0DE0140
:1003C000A352BF4F01900D928A95E1F7C901880FA2
:1003D000991FEDEDF0E0EC0FFD1FE80FF91F2081F4
:1003E000318122953295307F3227207F322720932A
:1003F000ED0024E1E0E0F1E0DE01A753BF4F019002
:100400000D922A95E1F7E9ECF0E0EC0FFD1FE80F03
:10041000F91F2081207F2093F20024E1E0E0F1E049
:10042000DE01AB54BF4F01900D922A95E1F7E5EB49
:10043000F0E0EC0FFD1FE80FF91F2081318122272A
:100440003F703595279535952795359527953595A1
:1004500027952093F70024E1E0E0F1E0DE01AF55BD
:10046000BF4F01900D922A95E1F7E1EAF0E0EC0F21
:10047000FD1FE80FF91F808191818827907F90935D
:10048000FC00BEC06430710509F063C084E1E0E0A7
:10049000F1E0DE01A357BF4F01900D928A95E1F77D
:1004A000C901880F991FEDE8F0E0EC0FFD1FE80F80
:1004B000F91F20812F702093EE0024E1E0E0F1E0AD
:1004C000DE01A758BF4F01900D922A95E1F7E9E7A9
:1004D000F0E0EC0FFD1FE80FF91F20813181207F34
:1004E0003327359527953595279535952795359556
:1004F00027952093F30024E1E0E0F1E0DE01AB5921
:10050000BF4F01900D922A95E1F7E5E6F0E0EC0F80
:10051000FD1FE80FF91F2081318122273F703093A2
:10052000F80024E1E0E0F1E0DE01AF5ABF4F0190B6
:100530000D922A95E1F7E1E5F0E0EC0FFD1FE80FE1
:10054000F91F818185958595859585958093FD0019
:1005500057C06530710509F053C084E1E0E0F1E077
:10056000DE01DD9601900D928A95E1F7C901880FB1
:10057000991F21E030E02C0F3D1F820F931FFC01DB
:1005800024AD35AD22953295307F3227207F32273A
:100590002093EE0024E1E0E0F1E0DE019996019085
:1005A0000D922A95E1F7FC0120A5207F2093F3000E
:1005B00024E1E0E0F1E0DE01559601900D922A95EC
:1005C000E1F7FC012489358922273F70359527956D
:1005D0003595279535952795359527952093F800DE
:1005E00024E1E0E0F1E0DE01119601900D922A9500
:1005F000E1F7FC01808191818827907F9093FD0035
:10060000C052DE4F0FB6F894DEBF0FBECDBFDF91F4
:10061000CF910895CF92DF92EF92FF920F931F93A5
:10062000CF93DF936B017C01C701B6010E949F034A
:100630000E944A040E9450030E9467038B01C2E09B
:10064000D0E00EC0C701B6019E010D2E000C440B78
:10065000550B0E949404672B682B692B31F021966F
:100660000C171D077CF780E001C081E0DF91CF917E
:100670001F910F91FF90EF90DF90CF9008950E940F
:10068000450065E070E085E090E00E94570064E17D
:1006900070E080E090E00E940A0380E090E008951E
:1006A0000E94250490F09F3748F4911116F40C94A1
:1006B0003E0460E070E080E89FE3089526F01B169A
:1006C000611D711D811D0C94DA030C94F5030E94C9
:1006D0006E036894B1110C943E0408950E940B04BB
:1006E00088F09F5798F0B92F9927B751B0F0E1F0F3
:1006F000660F771F881F991F1AF0BA95C9F714C0A3
:10070000B13091F00E943D04B1E008950C943D0495
:10071000672F782F8827B85F39F0B93FCCF38695DB
:1007200077956795B395D9F73EF490958095709538
:1007300061957F4F8F4F9F4F0895E89409C097FBB5
:100740003EF490958095709561957F4F8F4F9F4FA8
:100750009923A9F0F92F96E9BB279395F6958795EC
:1007600077956795B795F111F8CFFAF4BB0F11F4AF
:1007700060FF1BC06F5F7F4F8F4F9F4F16C0882356
:1007800011F096E911C0772321F09EE8872F762F8C
:1007900005C0662371F096E8862F70E060E02AF0CD
:1007A0009A95660F771F881FDAF7880F96958795B9
:1007B00097F90895882371F4772321F09850872BB7
:1007C000762F07C0662311F499270DC09051862B10
:1007D00070E060E02AF09A95660F771F881FDAF7BD
:1007E000880F9695879597F908959F3F31F091501E
:1007F00020F4879577956795B795880F911D969505
:10080000879597F9089557FD9058440F551F59F053
:100810005F3F71F04795880F97FB991F61F09F3FED
:1008200079F087950895121613061406551FF2CF16
:100830004695F1DF08C0161617061806991FF1CF66
:10084000869571056105089408950E940B04A0F037
:10085000BEE7B91788F4BB279F3860F41616B11DA0
:10086000672F782F8827985FF7CF869577956795BC
:10087000B11D93959639C8F30895E894BB27662770
:100880007727CB0197F9089519F416F40C948A048C
:100890000C94F5030E940B04B8F39923C9F3B6F343
:1008A0009F57550B87FF0E948D040024A0E640EA65
:1008B000900180585695979528F4805C660F771FB5
:1008C000881F20F026173707480730F4621B730B88
:1008D000840B202931294A2BA695179407942025AB
:1008E00031254A2758F7660F771F881F20F02617F3
:1008F0003707480730F4620B730B840B200D311D52
:10090000411DA09581F7B901842F9158880F9695C4
:10091000879508959FEF80EC089591505040660FA1
:10092000771F881FD2F70895052E97FB1EF40094B9
:100930000E94AB0457FD07D00E94B30407FC03D00C
:100940004EF40C94AB0450954095309521953F4F53
:100950004F4F5F4F089590958095709561957F4FAB
:100960008F4F9F4F0895A1E21A2EAA1BBB1BFD01BA
:100970000DC0AA1FBB1FEE1FFF1FA217B307E4077E
:10098000F50720F0A21BB30BE40BF50B661F771FD6
:10099000881F991F1A9469F76095709580959095B6
:0E09A0009B01AC01BD01CF010895F894FFCF7B
:1009AE0051158020111E111B500B411B411F1101AF
:0409BE00511F510B69
:00000001FF
