S01400006C616262315F6430303033652E7372656363
S11300000C942E000C9443000C9443000C94430075
S11300100C9443000C9443000C9443000C94430050
S11300200C9443000C9443000C9443000C94430040
S11300300C9443000C9443000C9443000C94430030
S11300400C9443000C9443000C9443000C94430020
S11300500C9443000C9443000C94430011241FBEE1
S1130060CFEFD4E0DEBFCDBF11E0A0E0B1E0E4E02B
S1130070F1E002C005900D92A030B107D9F70E94BB
S113008079000C9480000C940000E1E6F0E080E834
S11300908083108287EB8093E50087E08093E600FD
S11300A08FE08093E70080EC8093E4000895CF9381
S11300B0DF9384E080938100E1E6F0E08081816059
S11300C0808380E197E2A4E8B0E0EFEEF0E0CDEECB
S11300D0D0E041E02D913C911197283B384810F035
S11300E0408302C0108248830197A1F7DF91CF912A
S11300F008950E9445000E94570080E090E0089512
S1070100F894FFCF9D
S9030000FC
