:100000000C945B000C9478000C9478000C947800AD
:100010000C9478000C9478000C9478000C94780080
:100020000C9478000C9478000C9478000C94780070
:100030000C9478000C9478000C9478000C94780060
:100040000C9478000C9478000C9478000C94780050
:100050000C9478000C9478000C9478000800000050
:10006000BE922449123EABAAAA2ABECDCCCC4C3EAD
:1000700000000080BEABAAAAAA3E00000000BF009C
:100080000000803F0000000000084178D3BB438798
:10009000D1133D190E3CC3BD4282AD2B3E68EC82AC
:1000A00076BED98FE1A93E4C80EFFFBE01C4FF7F31
:1000B0003F000000000011241FBECFEFD4E0DEBFE0
:1000C000CDBF11E0A0E0B1E0E0EDFEE002C00590A0
:1000D0000D92A631B107D9F721E0A6E1B1E001C048
:1000E0001D92A631B207E1F70E949C040C946607AA
:1000F0000C940000E1E6F0E080E88083108287EB5A
:100100008093E50087E08093E6008FE08093E7002E
:1001100080EC8093E4000895CF93DF93CDB7DEB7F2
:10012000C051D2400FB6F894DEBF0FBECDBF6630CF
:10013000710508F02EC390ED980F9A30B8F4803313
:10014000C1F08133C9F08233D1F08333D9F08433E5
:10015000E1F08533E9F08633F1F08733F9F0883345
:1001600001F1893309F589E090E020C08AE090E050
:100170001DC080E090E01AC081E090E017C082E0EE
:1001800090E014C083E090E011C084E090E00EC0E5
:1001900085E090E00BC086E090E008C087E090E04A
:1001A00005C088E090E002C080E090E06115710534
:1001B00009F07BC04CEE50E0FA01208136E1E0E02E
:1001C000F1E0DE01A550BE4F01900D923A95E1F7A6
:1001D000880F991FEBEFF1E0EC0FFD1FE80FF91FFF
:1001E00030813F70207F232BFA01208361EF70E084
:1001F000FB01408126E1E0E0F1E0DE01AB51BE4FC2
:1002000001900D922A95E1F7E5EEF1E0EC0FFD1F6C
:10021000E80FF91F20813181207F332735952795FD
:10022000359527953595279535952795407F242B2E
:10023000FB01208366EF70E0FB01208136E1E0E006
:10024000F1E0DE01A153BE4F01900D923A95E1F726
:10025000EFECF1E0EC0FFD1FE80FF91F4081518139
:1002600044275F70207F252BFB0120834BEF50E05C
:10027000FA01208136E1E0E0F1E0DE01A754BE4F53
:1002800001900D923A95E1F7E9EBF1E0EC0FFD1FDB
:10029000E80FF91F91819595959595959595822FE4
:1002A000807F892BFA01808374C26130710509F067
:1002B0007DC06CEE70E0FB01408126E1E0E0F1E002
:1002C000DE01AD55BE4F01900D922A95E1F7880FE2
:1002D000991FE3EAF1E0EC0FFD1FE80FF91F208101
:1002E000318122953295307F3227207F32274F701F
:1002F000242BFB01208341EF50E0FA01208136E1FD
:10030000E0E0F1E0DE01A357BE4F01900D923A9577
:10031000E1F7EDE8F1E0EC0FFD1FE80FF91F308188
:10032000307F2F70232BFA01208366EF70E0FB01F2
:10033000408126E1E0E0F1E0DE01A958BE4F0190E6
:100340000D922A95E1F7E7E7F1E0EC0FFD1FE80FCA
:10035000F91F2081318122273F70359527953595EA
:10036000279535952795359527954F70242BFB01BB
:1003700020834BEF50E0FA01208136E1E0E0F1E02C
:10038000DE01AF59BE4F01900D923A95E1F7E1E6DB
:10039000F1E0EC0FFD1FE80FF91F808191818827A4
:1003A000907F2F70292BFA012083F3C162307105F1
:1003B00009F07BC04DEE50E0FA01208136E1E0E02B
:1003C000F1E0DE01A55BBE4F01900D923A95E1F799
:1003D000880F991FEBE4F1E0EC0FFD1FE80FF91F08
:1003E00030813F70207F232BFA01208362EF70E081
:1003F000FB01408126E1E0E0F1E0DE01AB5CBE4FB5
:1004000001900D922A95E1F7E5E3F1E0EC0FFD1F75
:10041000E80FF91F20813181207F332735952795FB
:10042000359527953595279535952795407F242B2C
:10043000FB01208367EF70E0FB01208136E1E0E003
:10044000F1E0DE01A15EBE4F01900D923A95E1F719
:10045000EFE1F1E0EC0FFD1FE80FF91F4081518142
:1004600044275F70207F252BFB0120834CEF50E059
:10047000FA01208136E1E0E0F1E0DE01A75FBE4F46
:1004800001900D923A95E1F7E9E0F1E0EC0FFD1FE4
:10049000E80FF91F91819595959595959595822FE2
:1004A000807F892BFA01808374C16330710509F064
:1004B0007DC06DEE70E0FB01408126E1E0E0F1E0FF
:1004C000DE01AD50BF4F01900D922A95E1F7880FE4
:1004D000991FE3EFF0E0EC0FFD1FE80FF91F2081FB
:1004E000318122953295307F3227207F32274F701D
:1004F000242BFB01208342EF50E0FA01208136E1FA
:10050000E0E0F1E0DE01A352BF4F01900D923A9579
:10051000E1F7EDEDF0E0EC0FFD1FE80FF91F308182
:10052000307F2F70232BFA01208367EF70E0FB01EF
:10053000408126E1E0E0F1E0DE01A953BF4F0190E8
:100540000D922A95E1F7E7ECF0E0EC0FFD1FE80FC4
:10055000F91F2081318122273F70359527953595E8
:10056000279535952795359527954F70242BFB01B9
:1005700020834CEF50E0FA01208136E1E0E0F1E029
:10058000DE01AF54BF4F01900D923A95E1F7E1EBD8
:10059000F0E0EC0FFD1FE80FF91F808191818827A3
:1005A000907F2F70292BFA012083F3C064307105EE
:1005B00009F07BC04EEE50E0FA01208136E1E0E028
:1005C000F1E0DE01A556BF4F01900D923A95E1F79B
:1005D000880F991FEBE9F0E0EC0FFD1FE80FF91F02
:1005E00030813F70207F232BFA01208363EF70E07E
:1005F000FB01408126E1E0E0F1E0DE01AB57BF4FB7
:1006000001900D922A95E1F7E5E8F0E0EC0FFD1F6F
:10061000E80FF91F20813181207F332735952795F9
:10062000359527953595279535952795407F242B2A
:10063000FB01208368EF70E0FB01208136E1E0E000
:10064000F1E0DE01A159BF4F01900D923A95E1F71B
:10065000EFE6F0E0EC0FFD1FE80FF91F408151813C
:1006600044275F70207F252BFB0120834DEF50E056
:10067000FA01208136E1E0E0F1E0DE01A75ABF4F48
:1006800001900D923A95E1F7E9E5F0E0EC0FFD1FDE
:10069000E80FF91F91819595959595959595822FE0
:1006A000807F892BFA01808374C06530710509F061
:1006B00070C06EEE70E0FB01408126E1E0E0F1E009
:1006C000DE01AD5BBF4F01900D922A95E1F7880FD7
:1006D000991FE3E4F0E0EC0FFD1FE80FF91F208104
:1006E000318122953295307F3227207F32274F701B
:1006F000242BFB01208343EF50E0FA01208136E1F7
:10070000E0E0F1E0DE019D9601900D923A95E1F76F
:1007100061E070E06C0F7D1F860F971FFC0134A510
:10072000307F2F70232BFA01208368EF70E0FB01EC
:10073000408126E1E0E0F1E0DE01579601900D9264
:100740002A95E1F7FC012689378922273F703595E4
:1007500027953595279535952795359527954F708C
:10076000242BFB0120834DEF50E0FA01208136E17C
:10077000E0E0F1E0DE01119601900D923A95E1F78B
:10078000FC01808191818827907F2F70292BFA01AD
:100790002083C05FDD4F0FB6F894DEBF0FBECDBF24
:1007A000DF91CF9108954F925F926F927F928F92D7
:1007B0009F92AF92BF92CF92DF92EF92FF920F93F0
:1007C0001F93CF93DF93CDB7DEB762970FB6F89440
:1007D000DEBF0FBECDBF6B877C878D879E8761157F
:1007E000710581059105C1F00E9455050E943906E9
:1007F0000E94900520E030E040E85FE30E94B104F1
:100800000E941D056F87788B898B9A8B16161706A9
:10081000180619064CF068C081E090E0A0E0B0E056
:100820008F87988BA98BBA8BAF84B88891E0A91A6F
:10083000B108DE0111964D01412C512C32010F2ED1
:10084000FAE0CF2ED12CE12CF12CF02D8B859C855C
:10085000AD85BE858F839887A987BA8785011A14CD
:100860001B047CF46F81788589859A85A7019601A0
:100870000E9425072F83388749875A87015011091D
:1008800089F76F81788589859A85A70196010E94ED
:1008900025076F83788789879A878F819885A985AF
:1008A000BA85805DD4018D934D01B1E0AB1AB108DA
:1008B000EFEF4E1A5E0A6E0A7E0A8F859889A98923
:1008C000BA89481659066A067B060CF4BFCF0CC0DD
:1008D000B801D7018D917D010E948C000F5F1F4FE1
:1008E00006301105A9F706C0FE0131967F0100E030
:1008F00010E0EECF62960FB6F894DEBF0FBECDBF0C
:10090000DF91CF911F910F91FF90EF90DF90CF90EB
:10091000BF90AF909F908F907F906F905F904F901F
:10092000089584E080938100E1E6F0E080818160B9
:10093000808308952F9A08950E947A000E9491045E
:100940000E949A0466EC75EE89E290E00E94D3035F
:1009500060E070E082E30E948C0080E090E0089507
:100960005058BB27AA270E94C8040C94E7050E9490
:10097000D90538F00E94E00520F039F49F3F19F4C2
:1009800026F40C94D6050EF4E095E7FB0C94A7052D
:10099000E92F0E94F80558F3BA1762077307840716
:1009A000950720F079F4A6F50C9432060EF4E09544
:1009B0000B2EBA2FA02D0B01B90190010C01CA0119
:1009C000A0011124FF27591B99F0593F50F4503EC4
:1009D00068F11A16F040A22F232F342F4427585FB6
:1009E000F3CF469537952795A795F0405395C9F7CE
:1009F0007EF41F16BA0B620B730B840BBAF0915086
:100A0000A1F0FF0FBB1F661F771F881FC2F70EC024
:100A1000BA0F621F731F841F48F4879577956795F7
:100A2000B795F7959E3F08F0B0CF9395880F08F0E3
:100A30009927EE0F9795879508950E94240568944D
:100A4000B1110C94330608950E94000688F09F5758
:100A500098F0B92F9927B751B0F0E1F0660F771FE2
:100A6000881F991F1AF0BA95C9F714C0B13091F0D8
:100A70000E943206B1E008950C943206672F782F59
:100A80008827B85F39F0B93FCCF38695779567959D
:100A9000B395D9F73EF490958095709561957F4F09
:100AA0008F4F9F4F0895E89409C097FB3EF49095AF
:100AB0008095709561957F4F8F4F9F4F9923A9F037
:100AC000F92F96E9BB279395F695879577956795C6
:100AD000B795F111F8CFFAF4BB0F11F460FF1BC00A
:100AE0006F5F7F4F8F4F9F4F16C0882311F096E99D
:100AF00011C0772321F09EE8872F762F05C066234B
:100B000071F096E8862F70E060E02AF09A95660F03
:100B1000771F881FDAF7880F9695879597F90895BC
:100B20000E941A0690F09F3748F4911116F00C9429
:100B3000330660E070E080E89FEB089526F41B1612
:100B4000611D711D811D0C94AD050C94C80597F9AC
:100B50009F6780E870E060E00895882371F4772350
:100B600021F09850872B762F07C0662311F4992720
:100B70000DC09051862B70E060E02AF09A95660FC8
:100B8000771F881FDAF7880F9695879597F908954C
:100B90009F3F31F0915020F4879577956795B795F1
:100BA000880F911D9695879597F908959FEF80EC92
:100BB000089500240A9416161706180609060895C3
:100BC00000240A9412161306140605060895092E29
:100BD0000394000C11F4882352F0BB0F40F4BF2B98
:100BE00011F460FF04C06F5F7F4F8F4F9F4F0895D8
:100BF00057FD9058440F551F59F05F3F71F04795CE
:100C0000880F97FB991F61F09F3F79F087950895B2
:100C1000121613061406551FF2CF4695F1DF08C0D1
:100C2000161617061806991FF1CF869571056105EE
:100C3000089408950E940006A0F0BEE7B91788F452
:100C4000BB279F3860F41616B11D672F782F8827B1
:100C5000985FF7CF869577956795B11D93959639EF
:100C6000C8F30895E894BB2766277727CB0197F947
:100C700008950E94490629ED3BE54EED5EE30C9494
:100C8000910616F00C94C8050C94D60568940C9443
:100C9000A7050E940006A8F39923C1F3AEF3DF93E2
:100CA000CF931F930F93FF92C92FDD2788232AF03C
:100CB0002197660F771F881FDAF720E030E040E8C1
:100CC0005FEB9FE3883920F0803E38F021968F77E4
:100CD0000E94B104ECE5F0E004C00E94B104E9E830
:100CE000F0E00E94FE068B01BE01EC01FB2E6F5767
:100CF00071097595771F880B990B0E94550528E19E
:100D000032E741E35FE30E94A406AF2D9801AE01F4
:100D1000FF900F911F91CF91DF910E94C8040C9416
:100D2000E7050E94A4060C94E7050E94D90538F057
:100D30000E94E00520F0952311F00C94A7050C9477
:100D4000D60511240C9433060E94F80570F3959F84
:100D5000C1F3950F50E0551F629FF001729FBB27B2
:100D6000F00DB11D639FAA27F00DB11DAA1F649F4E
:100D70006627B00DA11D661F829F2227B00DA11D01
:100D8000621F739FB00DA11D621F839FA00D611D87
:100D9000221F749F3327A00D611D231F849F600DA8
:100DA000211D822F762F6A2F11249F5750409AF0D1
:100DB000F1F088234AF0EE0FFF1FBB1F661F771F5D
:100DC000881F91505040A9F79E3F510580F00C9428
:100DD000A7050C9433065F3FE4F3983ED4F3869561
:100DE00077956795B795F795E7959F5FC1F7FE2BC8
:100DF000880F911D9695879597F90895DF93CF9366
:100E00001F930F93FF92EF92DF927B018C01689406
:100E100006C0DA2EEF010E94A406FE01E894A59117
:100E20002591359145915591A6F3EF010E94C80493
:100E3000FE019701A801DA9469F7DF90EF90FF9027
:100E40000F911F91CF91DF910895052E97FB1EF40E
:100E500000940E943C0757FD07D00E94440707FCFE
:100E600003D04EF40C943C07509540953095219555
:100E70003F4F4F4F5F4F08959095809570956195C6
:100E80007F4F8F4F9F4F0895A1E21A2EAA1BBB1BC5
:100E9000FD010DC0AA1FBB1FEE1FFF1FA217B30746
:100EA000E407F50720F0A21BB30BE40BF50B661F5C
:100EB000771F881F991F1A9469F760957095809520
:100EC00090959B01AC01BD01CF010895F894FFCF2F
:100ED00051158020111E111B500B411B411F110188
:060EE000511F510B000040
:00000001FF
